:020000040800F2
:10000000600600206D010008090400089B03000839
:100010000504000827020008910A000800000000FB
:10002000000000000000000000000000A50500081E
:100030002B0200080000000061050008910600087E
:100040008701000887010008870100088701000870
:100050008701000887010008870100088701000860
:100060008701000887010008870100088701000850
:100070008701000887010008870100088701000840
:100080008701000887010008870100088701000830
:100090008701000887010008870100088701000820
:1000A0008701000887010008870100088701000810
:1000B0008701000887010008870100088701000800
:1000C00087010008870100088701000887010008F0
:1000D00087010008870100088701000887010008E0
:1000E00087010008870100088701000800F002F876
:1000F00000F02CF80AA090E8000C82448344AAF196
:100100000107DA4501D100F021F8AFF2090EBAE893
:100110000F0013F0010F18BFFB1A43F0010318473B
:10012000640B0000740B000000230024002500264F
:10013000103A28BF78C1FBD8520728BF30C148BF4A
:100140000B6070471FB51FBD10B510BD00F031F832
:100150001146FFF7F7FF00F09DFC00F04FF803B4E5
:10016000FFF7F2FF03BC00F057F800000948804792
:1001700009480047FEE7FEE7FEE7FEE7FEE7FEE789
:10018000FEE7FEE7FEE7FEE704480549054A064BA1
:100190007047000095060008ED0000086000002090
:1001A0006006002060020020600200207047704757
:1001B0007047754600F02CF8AE4605006946534678
:1001C00020F00700854618B020B5FFF7DDFFBDE839
:1001D00020404FF000064FF000074FF000084FF0AE
:1001E000000B21F00701AC46ACE8C009ACE8C0093F
:1001F000ACE8C009ACE8C0098D46704710B50446AC
:10020000AFF300802046BDE81040FFF7A8BF000014
:10021000004870470000002001491820ABBEFEE7EF
:1002200026000200704700BFFEE7704700B5034696
:1002300003E04FF47A7000F005F8181EA3F10103F3
:10024000F7D100BD00EBC001C9004FF0E0225161C1
:10025000002191610521116100BF4FF0E021096982
:1002600001F480310029F8D004214FF0E02211611F
:1002700070472DE9F04102460025002600200023AA
:100280000024002791F803C00CF00F0591F803C07B
:100290000CF0100CBCF1000F03D091F802C04CEA36
:1002A000050591F800C0BCF1000F31D014680020A2
:1002B0002BE04FF0010C0CFA00F3B1F800C00CEA8F
:1002C00003069E4220D183004FF00F0C0CFA03F777
:1002D000BC4305FA03FC4CEA040491F803C0BCF1EA
:1002E000280F06D14FF0010C0CFA00FCC2F814C024
:1002F0000AE091F803C0BCF1480F05D14FF0010CA2
:100300000CFA00FCC2F810C0401C0828D1D31460BD
:10031000B1F800C0BCF1FF0F34DD546800202EE0BE
:1003200000F1080C4FF0010808FA0CF3B1F800C016
:100330000CEA03069E4221D183004FF00F0C0CFA09
:1003400003F7BC4305FA03FC4CEA040491F803C02C
:10035000BCF1280F05D100F1080C08FA0CF8C2F81E
:10036000148091F803C0BCF1480F07D100F1080CCC
:100370004FF0010808FA0CF8C2F81080401C082859
:10038000CED35460BDE8F0810246002093680B4054
:100390000BB1012000E00020704700BFFEE7000025
:1003A00010B500244FF400410A48FFF7EDFF70B983
:1003B0001420FFF73BFF00BF4FF400410548FFF753
:1003C000E3FF0028F8D01420FFF730FF0124204677
:1003D00010BD00000008014008B50121042000F014
:1003E000D1F848208DF803004FF40040ADF800002C
:1003F00003208DF8020069460148FFF73AFF08BD67
:100400000008014000BFFEE77047000000B589B05A
:100410000121042000F0A6F80121082000F0B2F824
:100420004020ADF8200018208DF8230003208DF81F
:10043000220008A94848FFF71CFF8020ADF82000E3
:1004400018208DF8230003208DF8220008A94248C7
:10045000FFF70FFF4FF48070ADF8200018208DF8E3
:10046000230003208DF8220008A93B48FFF701FF75
:100470004FF40070ADF8200018208DF82300032001
:100480008DF8220008A93448FFF7F3FE6320ADF889
:1004900018002320ADF814000020ADF81A00ADF8C4
:1004A000160005A92D4800F0A1FA6020ADF804005F
:1004B0000120ADF806000020ADF80A00ADF80C00F0
:1004C00001A9264800F02EF96020ADF804000120B3
:1004D000ADF806000020ADF80A00ADF80C0001A947
:1004E0001E4800F075F96020ADF804000120ADF859
:1004F00006000020ADF80A00ADF80C0001A917486D
:1005000000F0C6F96020ADF804000120ADF8060047
:100510000020ADF80A00ADF80C0001A90F4800F06A
:1005200011FA08210D4800F049F908210B4800F0A4
:10053000A1F90821094800F0FBF90821074800F05B
:100540003FFA0121054800F0D5F80121034800F0E9
:10055000DDF809B000BD0000000C014000080040BB
:100560007047000029B1064AD2690243044BDA61A0
:1005700004E0034AD2698243014BDA61704700000C
:100580000010024029B1064A92690243044B9A6165
:1005900004E0034A92698243014B9A61704700006C
:1005A00000100240704710B500F002F810BD0000C6
:1005B0000CB50020019000903348006840F4803072
:1005C0003149086000BF3048006800F400300090F6
:1005D0000198401C0190009818B90198B0F5A06FDF
:1005E000F1D12948006800F4003010B101200090DA
:1005F00001E0002000900098012843D123480068C2
:1006000040F01000214908600846006820F003000F
:1006100008600846006840F0020008601A48406818
:10062000194948600846406848600846406840F4F8
:10063000806048600846406820F47C1048600846A6
:10064000406840F4E81048600846006840F0807058
:10065000086000BF0C48006800F000700028F9D066
:100660000948406820F00300074948600846406890
:1006700040F00200486000BF0348406800F00C00F2
:100680000828F9D10CBD00000010024000200240F3
:100690007047000010B51348006840F00100114990
:1006A000086008464068104908400E4948600846FE
:1006B00000680E4908400B4908600846006820F4AD
:1006C000802008600846406820F4FE0048604FF42F
:1006D0001F008860FFF767FF4FF000600449086063
:1006E00010BD0000001002400000FFF8FFFFF6FE02
:1006F00008ED00E021B1028842F08002028004E0AF
:1007000002884FF67F731A400280704721B1028839
:1007100042F00102028004E002884FF6FE731A40A4
:100720000280704770B5002400220023058C4FF62C
:10073000FE7635400584028C8388048B4FF68F75D6
:100740002C40B51E2C400D882C43751E2A400D8967
:100750002A434D882A43144DA8420BD0134DA8427A
:1007600008D0134DA84205D0124DA84202D0124D18
:10077000A84213D14FF6F7752A404D892A434FF608
:10078000FB752A408D882A434FF6FF652B404FF6B4
:10079000FF552B408D892B43CD892B4383800483C8
:1007A000CD888586028470BD002C01400034014054
:1007B0000040014000440140004801400A46002139
:1007C000018B4FF6F7731940114301837047000006
:1007D00070B5002400220023058C4FF6EF763540DB
:1007E0000584028C8388048B48F6FF752C404FF6F5
:1007F000FF452C400D884FF6FF7606EA05252C4371
:100800004FF6DF752A400D8906EA05152A434D8803
:1008100006EA05152A43154DA84202D0144DA842F8
:100820001DD14FF67F752A404D894FF6FF7606EAB7
:1008300005152A434FF6BF752A408D8806EA05152F
:100840002A434FF6FF352B404FF2FF752B408D8921
:1008500006EA85052B43CD8906EA85052B4383806F
:100860000483CD880587028470BD0000002C014000
:10087000003401400A460021018B4FF2FF731940FA
:100880004FF6FF7303EA0223194301837047000008
:1008900070B5002400220023058C4FF6FF6635401A
:1008A0000584028C8388848B4FF68F752C404FF61D
:1008B000FC752C400D882C434FF6FF552A400D89BE
:1008C0004FF6FF7606EA05252A434D8806EA0525F8
:1008D0002A43154DA84202D0144DA8421DD14FF213
:1008E000FF752A404D894FF6FF7606EA05252A4313
:1008F0004FF6FF352A408D8806EA05252A434EF635
:10090000FF752B404DF6FF752B408D8906EA0515C6
:100910002B43CD8906EA05152B4383808483CD883C
:100920008587028470BD0000002C01400034014026
:100930000A460021818B4FF6F773194011438183DA
:100940007047000070B5002200230024058C4EF68D
:10095000FF7635400584038C8488828B48F6FF75CA
:100960002A404FF6FF452A400D884FF6FF7606EAEB
:1009700005252A434DF6FF752B400D8906EA0535FE
:100980002B434D8806EA05352B430B4DA84202D078
:100990000A4DA84208D14BF6FF752C408D894FF6C1
:1009A000FF7606EA85152C4384808283CD88A0F8E3
:1009B0004050038470BD0000002C01400034014011
:1009C0000A460021818B4FF2FF7319404FF6FF73E7
:1009D00003EA0223194381837047818670470187A8
:1009E000704781877047A0F8401070470022028846
:1009F0001D4B98420ED01D4B98420BD0B0F1804F4A
:100A000008D01B4B984205D01A4B984202D01A4B83
:100A1000984204D14FF68F731A404B881A43174BF4
:100A2000984207D0164B984204D04FF6FF431A4025
:100A3000CB881A4302808B8883850B8803850A4BF9
:100A400098420BD0094B984208D00E4B984205D0E3
:100A50000D4B984202D00D4B984201D10B7A038680
:100A60000123838270470000002C014000340140C4
:100A70000004004000080040000C0040001000404E
:100A80000014004000400140004401400048014083
:100A900000BFFEE700F0D8F8FFF79EFC31E0FFF75B
:100AA0007FFC01282AD14FF47A71462000F08EF89D
:100AB0004FF4FA7000F0A3F84FF47A71462000F07A
:100AC000AAF84FF4FA7000F09AF84FF47A714620C1
:100AD00000F018F84FF47A71462000F02CF84FF42B
:100AE0007A71462000F059F84FF47A71462000F0F0
:100AF0003BF84FF4FA7000F082F802E0002000F0BA
:100B00007EF8CCE770B504460D46642C00DD642405
:100B1000002C00DA0024E2B200231946184600F047
:100B200097F82846FFF782FB00231A461946184615
:100B300000F08EF870BD70B504460D46642C00DDE3
:100B40006424002C00DA0024E0B200231A4619467F
:100B500000F07EF82846FFF769FB00231A46194685
:100B6000184600F075F870BD70B504460D46642C4B
:100B700000DD6424002C00DA0024E2B2E1B200239C
:100B8000184600F065F82846FFF750FB00231A4688
:100B90001946184600F05CF870BD70B504460D4665
:100BA000642C00DD6424002C00DA0024E3B2E0B2FF
:100BB0000022114600F04CF82846FFF737FB0023CF
:100BC0001A461946184600F043F870BD70B5044641
:100BD0000D46642C00DD6424002C00DA0024E3B20E
:100BE000E1B20022104600F033F82846FFF71EFB62
:100BF00000231A461946184600F02AF870BD10B5B1
:100C0000044600231A461946184600F021F82046EB
:100C1000FFF70CFB10BD70B504460D46642C00DDDB
:100C20006424002C00DA0024E2B2E0B2002319466A
:100C300000F00EF82846FFF7F9FA00231A46194685
:100C4000184600F005F870BD10B5FFF7DFFB10BDCA
:100C50002DE9F04104460F4615461E462146084838
:100C6000FFF7BBFE39460648FFF7B9FE29460448A0
:100C7000FFF7B7FE31460248FFF7B5FEBDE8F08149
:100C800000080040940C00080000002060060000EE
:040C9000280100082F
:04000005080000ED02
:00000001FF
