:020000040800F2
:100000004804002001010008D70400080904000882
:10001000D504000811030008090E000800000000C4
:100020000000000000000000000000005907000868
:10003000130300080000000071060008B90800085A
:100040001B0100081B0100081B0100081B01000820
:100050001B0100081B0100081B0100081B01000810
:100060001B0100081B0100081B0100081B01000800
:100070001B0100081B0100081B0100081B010008F0
:100080001B0100081B0100081B0100081B010008E0
:100090001B0100081B0100081B0100081B010008D0
:1000A0001B0100081B0100081B0100081B010008C0
:1000B0001B0100081B0100081B0100081B010008B0
:1000C0001B0100081B0100081B0100081B010008A0
:1000D0001B010008290C00081B0100081B01000877
:1000E0001B0100081B0100081B010008DFF80CD0F1
:1000F00000F0FCF800480047290E000848040020E2
:100100000648804706480047FEE7FEE7FEE7FEE7B1
:10011000FEE7FEE7FEE7FEE7FEE7FEE7BD080008B4
:10012000ED000008F0B480EA0102D40F4200B2EB07
:10013000410F02D20246084611464A0042D0C30D82
:10014000DDB2C1F3C752AD1A202D35DAC1F3160165
:1001500041F4000204B15242C5F1200602FA06F150
:100160002A411044B3EBD05F23D0C4B1012DA0EBE2
:10017000C35009DCF0BC4FF0004202EAC352DBB2CC
:1001800000F5000000F083B8400000F1807000EB43
:10019000C350A0F1807040EAD170490009E04908DD
:1001A00041EAC071A0EBC35000F50000400800EB2D
:1001B000C350F0BC00F062B86142012202EB410181
:1001C000001BF6E7F0BC704781F00041AAE780F021
:1001D0000040A7E780EA010210B502F000434000AA
:1001E00022D04A001FD0010E01EB1261C0F356006D
:1001F000C2F3560240F4000042F40002A0FB0220C9
:1002000000047F39140400D0401C50EA124001D48D
:100210004000491EC2B20C0604EBD010401C40083E
:10022000802A02D003E0002010BD20F00100002948
:1002300000DA0020184310BDC10F80EAE0700844C6
:10024000CA079623002100F022B800F0004220F0F7
:100250000040C10DC0F3160040F400007F2901DA10
:1002600000207047962903DCC1F19601C84001E0E7
:1002700096398840002AF4D0404270470029A8BF30
:100280007047401C490008BF20F00100704710B4BF
:10029000B0FA80FC00FA0CF050EA010404BF10BC74
:1002A000704749B1CCF1200421FA04F411FA0CF1A1
:1002B00018BF012121430843A3EB0C01CB1D4FEADA
:1002C00000614FEA102042BF002010BC704700EBD5
:1002D000C35010440029A4BF10BC7047401C490003
:1002E00008BF20F0010010BC70470000064C074D0D
:1002F00006E0E06840F0010394E8070098471034F6
:10030000AC42F6D3FFF7F6FE800F0008A00F0008FE
:10031000FEE7704700B502464FF47A7302E01846D4
:1003200000F004F8521E501CF9D100BD00EBC000D3
:10033000C1004FF0E0204161002181610521016190
:100340000169C903FCD50421016170472DE9F04121
:100350000022CC7804F00F03E40601D58C78234307
:100360000C784FF00F0714F0FF0F4FF0010C1CD06A
:1003700005680CFA02F40E882640A64211D19600B8
:1003800007FA06F825EA080503FA06F848EA05051B
:10039000CE78282E02D0482E02D002E0446100E040
:1003A0000461521C082AE4D305600A88FF2A1ED97A
:1003B0004568002202F108060CFA06F40E88264071
:1003C000A64210D1960007FA06F825EA080503FAB6
:1003D00006F848EA0505CE78282E00D14461CE788B
:1003E000482E00D10461521C082AE3D34560BDE8C1
:1003F000F0810246002092680A4200D00120704736
:100400004161704701617047FEE7000070B500244C
:100410000B4D4FF4004631462846FFF7EAFF60B91E
:100420001420FFF777FF31462846FFF7E2FF002848
:10043000F9D01420FFF76EFF0124204670BD0000A4
:100440000008014008B50121042000F021F94820EE
:100450008DF803004FF40040ADF8000003208DF844
:10046000020069460148FFF771FF08BD000801401E
:1004700002210148FFF7C6BF0008014002210148E0
:10048000FFF7BEBF0008014004210148FFF7BABFD3
:100490000008014004210148FFF7B2BF00080140F5
:1004A00038B50121042000F0F3F810208DF8030086
:1004B0000620ADF8000003208DF80200044C6946C8
:1004C0002046FFF743FF06212046FFF79BFF38BD7C
:1004D00000080140FEE7704770B50F23C27801267F
:1004E0000178002A1ED0144A126802F4E062C2F5B4
:1004F000E062120AC2F10404D3404578A540827834
:100500001A402A43120101F1E02181F80024007809
:1005100000F01F018E404009800000F1E020C0F88B
:10052000006170BD01F01F0086404809800000F1A5
:10053000E020C0F8806170BD0CED00E0F0B589B03E
:100540000121042000F096F80121082000F0A0F815
:100550004020ADF8200018248DF8234003258DF8A5
:100560002250414E08A93046FFF7F0FE8020ADF83A
:1005700020008DF823408DF8225008A93046FFF75F
:10058000E5FEB015ADF820008DF823408DF822501F
:1005900008A93046FFF7DAFE7015ADF820008DF897
:1005A00023408DF8225008A93046FFF7CFFE632084
:1005B000ADF818002320ADF814000024ADF81A405F
:1005C000ADF81640294F05A9384600F0DFFA60253E
:1005D000ADF804500126ADF80660ADF80A40ADF85C
:1005E0000C4001A9384600F0A9F9ADF80450ADF867
:1005F0000660ADF80A40ADF80C4001A9384600F09D
:10060000E7F9ADF80450ADF80660ADF80A40ADF872
:100610000C4001A9384600F029FAADF80450ADF8B5
:100620000660ADF80A40ADF80C4001A9384600F06C
:1006300065FA0821384600F0C5F90821384600F06F
:100640000BFA0821384600F053FA0821384600F02A
:1006500089FA0121384600F059F90121384600F0A5
:1006600061F909B0F0BD0000000C01400008004035
:1006700070470000054A002903D0D1690143D161C8
:100680007047D1698143D16170470000001002407A
:10069000054A002903D0916901439161704791692E
:1006A00081439161704700000010024010B5264A56
:1006B000516801F00C01254B002927D0042927D0CF
:1006C000082927D00360516801F0F0010909204B87
:1006D0005C5C0168E1404160546804F4E064240A11
:1006E0001C5D21FA04F48460546804F46054E40A44
:1006F0001B5DD940C160526802F44042920B144B1A
:100700001B1F9A5CB1FBF2F1016110BD0360DAE7D7
:100710000360D8E7516801F47011536803F4803323
:10072000022404EB914133B153689B0307D5094B75
:1007300059430160C7E7074B59430160C3E7034BC7
:1007400059430160BFE700000010024000127A0028
:100750000400002000093D007047000010B586B07D
:1007600001218803FFF794FF01210420FFF790FF88
:100770004FF40070ADF8140018208DF81700032016
:100780008DF816001D4C05A92046FFF7DFFD211549
:10079000ADF8141048218DF8171005A92046FFF771
:1007A000D5FD4FF4E13001900020ADF810000C2190
:1007B000ADF80E10ADF80C00ADF80A00ADF8080069
:1007C0000F4C01A9204600F0BDFA012240F225514C
:1007D000204600F09BFA25218DF8001001218DF8AC
:1007E00003108DF801108DF802106846FFF774FEB3
:1007F0000121204600F05EFA06B010BD000801405D
:1008000000380140AFF300800CB500220192009245
:100810002748016841F4803101604FF4A06301680A
:1008200001F4003100910199491C0191009911B91D
:1008300001999942F3D10168890302D50121009100
:1008400000E000920099012930D11A490A6842F06B
:1008500010020A600A6822F003020A600A6842F085
:1008600002020A604168416041684160416841F4A8
:1008700080614160416821F47C114160416841F42C
:10088000E8114160016841F08071016001688901EF
:10089000FCD5416821F003014160416841F002014B
:1008A00041604168C1F381010229FAD10CBD000009
:1008B00000100240002002407047000010B50F48B1
:1008C000016841F00101016041680D4A1140416039
:1008D00001680C4A11400160016821F48021016027
:1008E000416821F4FE0141604FF41F018160FFF770
:1008F00089FF05494FF00060086010BD00100240FC
:100900000000FFF8FFFFF6FE08ED00E0002904D02C
:10091000018841F0800101807047018821F0800149
:1009200001807047002904D0018841F00101018055
:100930007047018821F001010180704730B5028CB9
:1009400022F001020284028C8388048B24F070045C
:1009500024F003050C882C4322F002020D89154374
:100960004A882A43124DA8420BD0124DA84208D003
:10097000114DA84205D0114DA84202D0104DA842F9
:100980000FD122F008054A892A4322F004058A88FB
:100990002A4323F4807323F400738D891D43CB898C
:1009A0002B4383800483C9888186028430BD000084
:1009B000002C01400034014000400140004401404F
:1009C00000480140028B22F008020A43028370476C
:1009D00070B5028C22F010020284028C8388048B92
:1009E00024F4E04424F440760D884FF6FF7404EAC2
:1009F0000525354322F020020E8904EA0616164327
:100A00004A8804EA02123243114EB04202D0114E1B
:100A1000B04217D122F080024E8904EA061616432E
:100A200026F040068A8804EA0212324323F48063E7
:100A300023F400638E8904EA86061E43CB8904EA08
:100A40008303334383800583C9880187028470BD93
:100A5000002C014000340140028B22F400624FF66A
:100A6000FF7303EA012111430183704770B5028CC3
:100A700022F480720284028C8388848B24F07004B8
:100A800024F003040D88254322F400720E894FF6EA
:100A9000FF7404EA062616434A8804EA0222324317
:100AA000114EB04202D0114EB04217D122F400666E
:100AB0004A8904EA0222324322F480668A8804EAE0
:100AC0000222324323F4805323F400538E8904EA34
:100AD00006161E43CB8904EA0313334383808583C0
:100AE000C9888187028470BD002C01400034014018
:100AF000828B22F008020A438283704770B5028C11
:100B000022F480520284058C8288838B23F4E04394
:100B100023F440760C884FF6FF7303EA0424344331
:100B200025F400550E8903EA06362E434D8803EA64
:100B300005353543094EB04202D0094EB04205D1C9
:100B400022F480468A8903EA8212324382808483B7
:100B5000C988A0F84010058470BD0000002C014039
:100B600000340140828B22F400624FF6FF7303EAE7
:100B70000121114381837047818670470187704747
:100B800081877047A0F840107047000030B5028898
:100B90001B4C1C4DA0420DD0A8420BD0B0F1804F91
:100BA00008D0194B984205D0184B984202D0184BE8
:100BB000984203D122F070034A881A43154B984299
:100BC00006D0154B984203D022F44073CA881A43CA
:100BD00002808A8882850A880285A0420AD0A842BB
:100BE00008D00E4A904205D00D4A904202D00D4ADC
:100BF000904201D1097A01860121818230BD000035
:100C0000002C014000340140000400400008004076
:100C1000000C004000100040001400400040014063
:100C2000004401400048014010B51F4C40F22551DE
:100C3000204600F04BF800281BD0204600F0E0F8DA
:100C4000C0B21A4B1A4900245A7862B1012A10D155
:100C50009A788854521CD0B29870092809D3087A1F
:100C60005B2807D00CE0B32803D101225A7008702A
:100C70009A7010BD48781870012804D09C809C6040
:100C80005C709C7010BD8A78C87842EA0020988019
:100C900008794A7940EA02208A79C979120442EA3D
:100CA000016108439860EBE7003801401400002020
:100CB00034000020002904D0818941F40051818151
:100CC0007047818921F400518181704770B50024FB
:100CD00040F66A12C1F3421301F01F05012606FA1D
:100CE00005F2012B0CD0022B0DD0838A1340090A88
:100CF0008E40008830400BB100B10124204670BD09
:100D000083891340F3E7038A1340F0E710B540F6F8
:100D10006A13C1F3421301F01F040121A140012B0A
:100D200007D0022B07D014303AB102680A430260A0
:100D300010BD0C30F8E71030F6E702688A43026015
:100D400010BD000030B585B004460D46208A4CF633
:100D5000FF710840E98801432182A0894EF6F31112
:100D60000840A9882A8911436A8902431143A18155
:100D7000A08A4FF6FF410840A9890143A182684635
:100D8000FFF794FC1D48844201D1039800E00298CB
:100D9000A189090408D500EBC00101EB0010296806
:100DA0004900B0FBF1F007E000EBC00101EB0010DF
:100DB00029688900B0FBF1F06422B0FBF2F109016F
:100DC0000B096FF018056B4300EB8300A3891D042A
:100DD0004FF0320307D503EBC000B0FBF2F000F098
:100DE0000700084306E003EB0010B0FBF2F000F050
:100DF0000F000843208105B030BD000000380140DD
:100E00008088C0F308007047FEE702E008C8121FA0
:100E100008C1002AFAD170477047002001E001C1E3
:100E2000121F002AFBD1704700F08EF8FFF70AFB73
:100E3000FFF736FBFFF792FCFFF720FB4FF47A70C9
:100E4000FFF768FAFFF714FB284CFFF7DFFA0128D9
:100E50000BD1207868B10020207001280BD0FFF75B
:100E600013FB0021084600F04BF82078012805D03C
:100E700038E00120F0E7FFF70DFBF6E71C480078AB
:100E800048B11C481C49006888420BD9002108461B
:100E900000F036F826E00021084600F031F8002086
:100EA000E0601FE01548B0F90000FFF7C5F90646FD
:100EB000E168FFF789F9A168FFF78CF9054630462C
:100EC0006168FFF787F92946FFF72CF90146E660CC
:100ED0000846FFF7BAF9218A0A18081A01B210B2B7
:100EE00000F00EF80A20FFF715FAAEE72000002008
:100EF000140000201C000020084C010018000020F5
:100F0000F0B400240025002200236FF063060028BF
:100F100004DB642800DD6420C4B204E0B04200DADF
:100F200030464042C5B2002904DB642900DD64215B
:100F3000CAB204E0B14200DA31464842C3B229469F
:100F40002046F0BC00F002B8FFF7F8BA2DE9F041F6
:100F50000F4615461E46094C01462046FFF70CFE7B
:100F600039462046FFF70AFE29462046FFF708FECD
:100F700031462046BDE8F041FFF704BE00080040BE
:100F8000A00F000800000020340000000A0E000836
:100F9000D40F000834000020140400001A0E0008CA
:100FA0000204060800000000010203040102030419
:100FB0000607080900000000000000000000000013
:100FC000000000003333B33E0000000000000000CA
:040FD00032000000EB
:04000005080000ED02
:00000001FF
